S00D000046494E414C2E73726563AD
S11300000C942A000C944A010C9477020C94470037
S11300100C9447000C9447000C9447000C94470040
S11300200C9447000C9447000C9447000C94E9028C
S11300300C9447000C9447000C9447000C94470020
S11300400C9447000C9447000C9447000C94470010
S11300500C94470011241FBECFE5D8E0DEBFCDBF0E
S113006010E0A0E6B0E0E0E7F0E102C005900D92F8
S1130070A03CB107D9F720E0A0ECB0E001C01D928C
S1130080A83DB207E1F70E9455000C9436080C9481
S113009000000E94FF010E948E0160E08AE20E943B
S11300A0840382E00E94C00608950E948E010E948B
S11300B054030E94FF010E942A030E9449000E94E7
S11300C0FB0180E690E00E9439020E949A010E949E
S11300D03B030E946A02633071058105910580F536
S11300E00E9493018091C0009091C100892B09F076
S11300F062C00E94E4062FEF83ED90E3215080401C
S11301009040E1F700C000008FE690E00E94F40602
S11301100E94FB0182E790E00E9439022FEF83EDF9
S113012090E3215080409040E1F700C000000E941D
S1130130FB0181E090E09093C1008093C0003BC03C
S11301400E946A026430710581059105A0F10E9444
S11301509A018091C0009091C100019761F50E94BD
S1130160E4062FEF83ED90E3215080409040E1F7C7
S113017000C0000082E890E00E94F4060E94FB01A7
S113018082E790E00E94390265E082E00E945E020C
S113019085E890E00E9439022FEF83ED90E321502F
S11301A080409040E1F700C000000E94FB011092E3
S11301B0C1001092C0000E947C03893C910508F4A0
S11301C084CF0E947C038D32914080F10E94930180
S11301D08091C2009091C300892B09F076CF0E94D0
S11301E0E4068FEF93ED20E3815090402040E1F747
S11301F000C000008DE890E00E94F4060E94FB011C
S113020080E990E00E9439028FEF93ED20E3815062
S113021090402040E1F700C000000E94FB0181E013
S113022090E09093C3008093C2004FCF0E947C0360
S1130230893C910508F049CF0E949A018091C2003F
S11302409091C300019709F040CF0E94E4068FEF1C
S113025093ED20E3815090402040E1F700C000007E
S113026089E990E00E94F4060E94FB018CE990E089
S11302700E9439028FEF93ED20E38150904020409B
S1130280E1F700C000000E94FB011092C30010922D
S1130290C2001BCF1F920F920FB60F9211242F93FF
S11302A03F934F935F936F937F938F939F93AF93FA
S11302B0BF93EF93FF930E9493010E94E4062FEFF4
S11302C083ED90E3215080409040E1F700C00000AE
S11302D086EA90E00E94F4060E94FB0189EA90E01D
S11302E00E9439022FEF83ED90E32150804090402B
S11302F0E1F700C000000E94FB01FF91EF91BF9164
S1130300AF919F918F917F916F915F914F913F91A9
S11303102F910F900FBE0F901F90189561E083E20C
S11303200E94840308950E948E0161E083E20E948A
S11303307304089560E083E20E9473040895CF93E8
S1130340C82F8BB36C2F669568778770682B81E014
S11303500E94510661E08CE00E9473048FE99FE0E3
S11303600197F1F700C0000060E08CE00E94730484
S11303708C2F90E0880F991F880F991F880F991F61
S11303806BB388776770682B81E00E94510661E047
S11303908CE00E9473048FE99FE00197F1F700C09D
S11303A0000060E08CE00E9473048FE19EE40197FA
S11303B0F1F700C00000CF910895CF93C82F60E0FB
S11303C08CE00E94730460E08BE00E9473048C2F25
S11303D00E949F01CF910895CF93C82F60E08CE0D5
S11303E00E94730461E08BE00E9473048C2F0E94CE
S11303F09F01CF91089581E00E94DD01089561E09D
S11304008DE00E94840361E08EE00E94840361E039
S11304108FE00E94840361E080E10E94840361E034
S11304208CE00E94840361E08BE00E94840361E01D
S113043080E20E9484032FEF81EE94E021508040FB
S11304409040E1F700C0000083E30E94DD0182E3F5
S11304500E94DD0188E20E94DD018CE00E94DD0142
S11304600E94FB0186E00E94DD0182E00E94DD0122
S11304700895CF92DF92EF92FF92CF93DF93EC0136
S1130480C12CD12C760107C00E94EC018FEFC81A51
S1130490D80AE80AF80AFE01EC0DFD1D80818111DD
S11304A0F3CF8FE39CE90197F1F700C00000DF91DF
S11304B0CF91FF90EF90DF90CF900895823029F490
S11304C0862F806C0E94DD010895862F80680E942B
S11304D0DD0108956091CA007091CB008091CC0039
S11304E09091CD00089581E00E94D20608951F9254
S11304F00F920FB60F9211242F933F934F935F9354
S11305006F937F938F939F93AF93BF93EF93FF93D7
S11305108091C900813009F04BC08091C8008111DD
S11305200DC012BE81E08093C8001092C4001092E6
S1130530C5001092C6001092C7003AC08091C40052
S11305409091C500A091C600B091C700BA2FA92F01
S1130550982F882722B7BC01CD01620F711D811D20
S1130560911D0E94A80729E23CE349E654E40E9455
S113057007070E9479076093CA007093CB008093A9
S1130580CC009093CD002FEF83EF91E02150804079
S11305909040E1F700C000001092C4001092C50022
S11305A01092C6001092C7001092C8001092C900A1
S11305B0FF91EF91BF91AF919F918F917F916F9137
S11305C05F914F913F912F910F900FBE0F901F900D
S11305D018951F920F920FB60F9211242F938F9399
S11305E09F93AF93BF938091C4009091C500A09155
S11305F0C600B091C7000196A11DB11D8093C4002F
S11306009093C500A093C600B093C7008B3D924061
S1130610A105B10568F012BE1092C9001092C8007D
S11306201092C4001092C5001092C6001092C70028
S1130630BF91AF919F918F912F910F900FBE0F900B
S11306401F90189513BE81E083BF12BE89B78160E5
S113065089BF089561E08CE20E94840360E08BE22C
S11306600E94840361E08BE20E9462050E9473028F
S11306700E94220308958091C900811114C061E091
S11306808CE20E9473042FEF86E791E021508040B2
S11306909040E1F700C0000060E08CE20E94730427
S11306A081E08093C90008958AB38E7F8ABB87B1A5
S11306B0806487B987B18F7787B987B18E7F87B90F
S11306C087B18D7F87B987B18B7F87B987B1877FE2
S11306D087B987B18F7E87B986B1816086B986B1C3
S11306E0826086B986B1846086B986B1806886B92D
S11306F086B1806286B9089586B1806486B9349BD8
S1130700FECF84B195B108959DEC899F912D11245C
S1130710969596959695662309F472C0613009F012
S1130720E1C0923021F118F4913039F008959330FA
S1130730C1F1943009F44CC008959DEC899F912D2A
S11307401124969596959695990F292F220F220F8D
S1130750920F891B4AB321E030E0B90102C0660F51
S1130760771F8A95E2F7CB01842B8ABB08959DEC11
S1130770899F912D112492959F70990F990F292F7C
S1130780220F220F920F891B47B321E030E0B901F9
S113079002C0660F771F8A95E2F7CB01842B87BBD3
S11307A0089599E8899F912D112492959F707EE177
S11307B0979F8019112444B321E030E0B90102C0AD
S11307C0660F771F8A95E2F7CB01842B84BB0895CB
S11307D09DEC899F912D112492959695977078E2BE
S11307E0979F8019112441B321E030E0B90102C080
S11307F0660F771F8A95E2F7CB01842B81BB08959E
S1130800923029F118F4913039F008959330D1F1F0
S1130810943009F44FC008959DEC899F912D1124C3
S1130820969596959695990F292F220F220F920F40
S1130830891B4AB321E030E0B90102C0660F771F7B
S11308408A95E2F7CB01809584238ABB08959DECB9
S1130850899F912D112492959F70990F990F292F9B
S1130860220F220F920F891B47B321E030E0B90118
S113087002C0660F771F8A95E2F7CB018095842327
S113088087BB089599E8899F912D112492959F70B3
S11308907EE1979F8019112444B321E030E0B9012F
S11308A002C0660F771F8A95E2F7CB0180958423F7
S11308B084BB08959DEC899F912D11249295969562
S11308C0977078E2979F8019112441B321E030E0BA
S11308D0B90102C0660F771F8A95E2F7CB018095B4
S11308E0842381BB08959DEC899F912D11249695B5
S11308F096959695662309F472C0613009F0E1C0BB
S1130900923021F118F4913039F008959330C1F107
S1130910943009F44CC008959DEC899F912D1124C5
S1130920969596959695990F292F220F220F920F3F
S1130930891B4BB321E030E0B90102C0660F771F79
S11309408A95E2F7CB01842B8BBB08959DEC899F9C
S1130950912D112492959F70990F990F292F220F91
S1130960220F920F891B48B321E030E0B90102C085
S1130970660F771F8A95E2F7CB01842B88BB089515
S113098099E8899F912D112492959F707EE1979FFC
S11309908019112445B321E030E0B90102C0660F8B
S11309A0771F8A95E2F7CB01842B85BB08959DECD4
S11309B0899F912D112492959695977078E2979F2F
S11309C08019112442B321E030E0B90102C0660F5E
S11309D0771F8A95E2F7CB01842B82BB089592306E
S11309E029F118F4913039F008959330D1F194300D
S11309F009F44FC008959DEC899F912D112496957B
S1130A0096959695990F292F220F220F920F891BE5
S1130A104BB321E030E0B90102C0660F771F8A951D
S1130A20E2F7CB01809584238BBB08959DEC899FCD
S1130A30912D112492959F70990F990F292F220FB0
S1130A40220F920F891B48B321E030E0B90102C0A4
S1130A50660F771F8A95E2F7CB018095842388BBC4
S1130A60089599E8899F912D112492959F707EE1B4
S1130A70979F8019112445B321E030E0B90102C0E9
S1130A80660F771F8A95E2F7CB018095842385BB97
S1130A9008959DEC899F912D1124929596959770B8
S1130AA078E2979F8019112442B321E030E0B90124
S1130AB002C0660F771F8A95E2F7CB0180958423E5
S1130AC082BB08959DEC899F912D1124969596954E
S1130AD09695662309F472C0613009F0E1C0923042
S1130AE021F118F4913039F008959330C1F1943024
S1130AF009F44CC008959DEC899F912D112496957D
S1130B0096959695990F292F220F220F920F891BE4
S1130B104BB321E030E0B90102C0660F771F8A951C
S1130B20E2F7CB01842B8BBB08959DEC899F912D1B
S1130B30112492959F70990F990F292F220F220F3C
S1130B40920F891B48B321E030E0B90102C0660F5F
S1130B50771F8A95E2F7CB01842B88BB089599E827
S1130B60899F912D112492959F707EE1979F801902
S1130B70112445B321E030E0B90102C0660F771FAC
S1130B808A95E2F7CB01842B85BB08959DEC899F60
S1130B90912D112492959695977078E2979F8019DC
S1130BA0112442B321E030E0B90102C0660F771F7F
S1130BB08A95E2F7CB01842B82BB0895923029F108
S1130BC018F4913039F008959330D1F1943009F448
S1130BD04FC008959DEC899F912D1124969596956B
S1130BE09695990F292F220F220F920F891B4BB331
S1130BF021E030E0B90102C0660F771F8A95E2F761
S1130C00CB01809584238BBB08959DEC899F912D06
S1130C10112492959F70990F990F292F220F220F5B
S1130C20920F891B48B321E030E0B90102C0660F7E
S1130C30771F8A95E2F7CB018095842388BB0895BA
S1130C4099E8899F912D112492959F707EE1979F39
S1130C508019112445B321E030E0B90102C0660FC8
S1130C60771F8A95E2F7CB018095842385BB08958D
S1130C709DEC899F912D112492959695977078E219
S1130C80979F8019112442B321E030E0B90102C0DA
S1130C90660F771F8A95E2F7CB018095842382BB88
S1130CA00895823059F018F4813031F0089583307A
S1130CB039F0843039F008956BBB089568BB08950A
S1130CC065BB089562BB0895813049F120F08230FC
S1130CD009F449C00895613069F028F0623089F060
S1130CE06330B1F0089585B78E7F85BF85B78D7F5A
S1130CF085BF089585B7816085BF85B78D7F85BF22
S1130D00089585B78E7F85BF85B7826085BF0895B6
S1130D1085B7816085BF85B7826085BF08956130DE
S1130D2069F028F0623089F06330B1F0089585B736
S1130D308B7F85BF85B7877F85BF089585B784601E
S1130D4085BF85B7877F85BF089585B78B7F85BFAE
S1130D5085B7886085BF089585B7846085BF85B7EA
S1130D60886085BF0895633018F0633029F00895D2
S1130D7084B78F7B84BF089584B7806484BF08954B
S1130D80CF93C82F8FB780688FBF8BB780648BBF1A
S1130D9060E08AE20E9484036C2F80E00E94640673
S1130DA0CF910895CF93C82F8FB780688FBF8BB72B
S1130DB080688BBF60E08BE20E9484036C2F81E02B
S1130DC00E946406CF9108958AB188608AB98AB175
S1130DD080618AB98BB18D7F8BB987E689B9089513
S1130DE05D9BFECF8CB908950F931F93CF938C0115
S1130DF0C0E003C00E94F006CF5FF801EC0FF11DC4
S1130E0080818111F7CFCF911F910F9108950E9496
S1130E101B070C94FC070E94F50758F00E94EE078C
S1130E2040F029F45F3F29F00C94E50751110C942C
S1130E3030080C94EB070E940D0868F39923B1F372
S1130E40552391F3951B550BBB27AA2762177307EC
S1130E50840738F09F5F5F4F220F331F441FAA1F80
S1130E60A9F335D00E2E3AF0E0E832D0915050403C
S1130E70E695001CCAF72BD0FE2F29D0660F771FEA
S1130E80881FBB1F261737074807AB07B0E809F0D0
S1130E90BB0B802DBF01FF2793585F4F3AF09E3F55
S1130EA0510578F00C94E5070C9430085F3FE4F3A7
S1130EB0983ED4F3869577956795B795F7959F5F98
S1130EC0C9F7880F911D9695879597F90895E1E0E4
S1130ED0660F771F881FBB1F621773078407BA0743
S1130EE020F0621B730B840BBA0BEE1F88F7E0959E
S1130EF008950E94150888F09F5798F0B92F9927F4
S1130F00B751B0F0E1F0660F771F881F991F1AF0F0
S1130F10BA95C9F714C0B13091F00E942F08B1E01E
S1130F2008950C942F08672F782F8827B85F39F01D
S1130F30B93FCCF3869577956795B395D9F73EF489
S1130F4090958095709561957F4F8F4F9F4F089531
S1130F50E89409C097FB3EF490958095709561954F
S1130F607F4F8F4F9F4F9923A9F0F92F96E9BB2705
S1130F709395F695879577956795B795F111F8CF81
S1130F80FAF4BB0F11F460FF1BC06F5F7F4F8F4FEC
S1130F909F4F16C0882311F096E911C0772321F0E2
S1130FA09EE8872F762F05C0662371F096E8862F7A
S1130FB070E060E02AF09A95660F771F881FDAF7D1
S1130FC0880F9695879597F9089597F99F6780E814
S1130FD070E060E008959FEF80EC089500240A9487
S1130FE01616170618060906089500240A94121600
S1130FF01306140605060895092E0394000C11F433
S1131000882352F0BB0F40F4BF2B11F460FF04C0DF
S11310106F5F7F4F8F4F9F4F089557FD9058440F38
S1131020551F59F05F3F71F04795880F97FB991F43
S113103061F09F3F79F08795089512161306140600
S1131040551FF2CF4695F1DF08C01616170618068D
S1131050991FF1CF86957105610508940895E89468
S1131060BB2766277727CB0197F90895F894FFCF1C
S113107020202050726F70657274792D31200073B6
S11310802A005365776167652050726F626C656DE5
S11310902000632A00636C656172656400672A003E
S11310A0474153206C65616B006A2A004741532015
S11310B0434C45415200622A00627265616B2069AB
S11310C06E206465746563746564202121210000C9
S9030000FC
